{"contracts/RNG.sol":{"RNG":{"abi":[{"inputs":[{"internalType":"uint256","name":"nextIndex","type":"uint256"}],"name":"getNextRandomNumber","outputs":[{"internalType":"uint256","name":"","type":"uint256"}],"stateMutability":"view","type":"function"},{"inputs":[],"name":"getRandomBytes","outputs":[{"internalType":"bytes32","name":"addr","type":"bytes32"}],"stateMutability":"view","type":"function"},{"inputs":[],"name":"getRandomNumber","outputs":[{"internalType":"uint256","name":"","type":"uint256"}],"stateMutability":"view","type":"function"},{"inputs":[{"internalType":"uint256","name":"max","type":"uint256"}],"name":"getRandomRange","outputs":[{"internalType":"uint256","name":"","type":"uint256"}],"stateMutability":"view","type":"function"}],"evm":{"bytecode":{"linkReferences":{},"object":"608060405234801561001057600080fd5b506102d5806100206000396000f3fe608060405234801561001057600080fd5b506004361061004c5760003560e01c806395fa913514610051578063ba23ec8e14610081578063c46e63f41461009f578063dbdff2c1146100cf575b600080fd5b61006b600480360381019061006691906101b4565b6100ed565b60405161007891906101f0565b60405180910390f35b610089610129565b6040516100969190610224565b60405180910390f35b6100b960048036038101906100b491906101b4565b61014b565b6040516100c691906101f0565b60405180910390f35b6100d7610167565b6040516100e491906101f0565b60405180910390f35b6000816100f8610167565b1760405160200161010991906101f0565b6040516020818303038152906040528051906020012060001c9050919050565b60006040516000810160208160008060185afa61014257fe5b81519250505090565b600081610156610167565b610160919061026e565b9050919050565b6000610171610129565b60001c905090565b600080fd5b6000819050919050565b6101918161017e565b811461019c57600080fd5b50565b6000813590506101ae81610188565b92915050565b6000602082840312156101ca576101c9610179565b5b60006101d88482850161019f565b91505092915050565b6101ea8161017e565b82525050565b600060208201905061020560008301846101e1565b92915050565b6000819050919050565b61021e8161020b565b82525050565b60006020820190506102396000830184610215565b92915050565b7f4e487b7100000000000000000000000000000000000000000000000000000000600052601260045260246000fd5b60006102798261017e565b91506102848361017e565b9250826102945761029361023f565b5b82820690509291505056fea264697066735822122051fb30b9b10f8b933ce149af404132087aa5561d8939eebcce5c0d6470c124f064736f6c63430008130033","opcodes":"PUSH1 0x80 PUSH1 0x40 MSTORE CALLVALUE DUP1 ISZERO PUSH2 0x10 JUMPI PUSH1 0x0 DUP1 REVERT JUMPDEST POP PUSH2 0x2D5 DUP1 PUSH2 0x20 PUSH1 0x0 CODECOPY PUSH1 0x0 RETURN INVALID PUSH1 0x80 PUSH1 0x40 MSTORE CALLVALUE DUP1 ISZERO PUSH2 0x10 JUMPI PUSH1 0x0 DUP1 REVERT JUMPDEST POP PUSH1 0x4 CALLDATASIZE LT PUSH2 0x4C JUMPI PUSH1 0x0 CALLDATALOAD PUSH1 0xE0 SHR DUP1 PUSH4 0x95FA9135 EQ PUSH2 0x51 JUMPI DUP1 PUSH4 0xBA23EC8E EQ PUSH2 0x81 JUMPI DUP1 PUSH4 0xC46E63F4 EQ PUSH2 0x9F JUMPI DUP1 PUSH4 0xDBDFF2C1 EQ PUSH2 0xCF JUMPI JUMPDEST PUSH1 0x0 DUP1 REVERT JUMPDEST PUSH2 0x6B PUSH1 0x4 DUP1 CALLDATASIZE SUB DUP2 ADD SWAP1 PUSH2 0x66 SWAP2 SWAP1 PUSH2 0x1B4 JUMP JUMPDEST PUSH2 0xED JUMP JUMPDEST PUSH1 0x40 MLOAD PUSH2 0x78 SWAP2 SWAP1 PUSH2 0x1F0 JUMP JUMPDEST PUSH1 0x40 MLOAD DUP1 SWAP2 SUB SWAP1 RETURN JUMPDEST PUSH2 0x89 PUSH2 0x129 JUMP JUMPDEST PUSH1 0x40 MLOAD PUSH2 0x96 SWAP2 SWAP1 PUSH2 0x224 JUMP JUMPDEST PUSH1 0x40 MLOAD DUP1 SWAP2 SUB SWAP1 RETURN JUMPDEST PUSH2 0xB9 PUSH1 0x4 DUP1 CALLDATASIZE SUB DUP2 ADD SWAP1 PUSH2 0xB4 SWAP2 SWAP1 PUSH2 0x1B4 JUMP JUMPDEST PUSH2 0x14B JUMP JUMPDEST PUSH1 0x40 MLOAD PUSH2 0xC6 SWAP2 SWAP1 PUSH2 0x1F0 JUMP JUMPDEST PUSH1 0x40 MLOAD DUP1 SWAP2 SUB SWAP1 RETURN JUMPDEST PUSH2 0xD7 PUSH2 0x167 JUMP JUMPDEST PUSH1 0x40 MLOAD PUSH2 0xE4 SWAP2 SWAP1 PUSH2 0x1F0 JUMP JUMPDEST PUSH1 0x40 MLOAD DUP1 SWAP2 SUB SWAP1 RETURN JUMPDEST PUSH1 0x0 DUP2 PUSH2 0xF8 PUSH2 0x167 JUMP JUMPDEST OR PUSH1 0x40 MLOAD PUSH1 0x20 ADD PUSH2 0x109 SWAP2 SWAP1 PUSH2 0x1F0 JUMP JUMPDEST PUSH1 0x40 MLOAD PUSH1 0x20 DUP2 DUP4 SUB SUB DUP2 MSTORE SWAP1 PUSH1 0x40 MSTORE DUP1 MLOAD SWAP1 PUSH1 0x20 ADD KECCAK256 PUSH1 0x0 SHR SWAP1 POP SWAP2 SWAP1 POP JUMP JUMPDEST PUSH1 0x0 PUSH1 0x40 MLOAD PUSH1 0x0 DUP2 ADD PUSH1 0x20 DUP2 PUSH1 0x0 DUP1 PUSH1 0x18 GAS STATICCALL PUSH2 0x142 JUMPI INVALID JUMPDEST DUP2 MLOAD SWAP3 POP POP POP SWAP1 JUMP JUMPDEST PUSH1 0x0 DUP2 PUSH2 0x156 PUSH2 0x167 JUMP JUMPDEST PUSH2 0x160 SWAP2 SWAP1 PUSH2 0x26E JUMP JUMPDEST SWAP1 POP SWAP2 SWAP1 POP JUMP JUMPDEST PUSH1 0x0 PUSH2 0x171 PUSH2 0x129 JUMP JUMPDEST PUSH1 0x0 SHR SWAP1 POP SWAP1 JUMP JUMPDEST PUSH1 0x0 DUP1 REVERT JUMPDEST PUSH1 0x0 DUP2 SWAP1 POP SWAP2 SWAP1 POP JUMP JUMPDEST PUSH2 0x191 DUP2 PUSH2 0x17E JUMP JUMPDEST DUP2 EQ PUSH2 0x19C JUMPI PUSH1 0x0 DUP1 REVERT JUMPDEST POP JUMP JUMPDEST PUSH1 0x0 DUP2 CALLDATALOAD SWAP1 POP PUSH2 0x1AE DUP2 PUSH2 0x188 JUMP JUMPDEST SWAP3 SWAP2 POP POP JUMP JUMPDEST PUSH1 0x0 PUSH1 0x20 DUP3 DUP5 SUB SLT ISZERO PUSH2 0x1CA JUMPI PUSH2 0x1C9 PUSH2 0x179 JUMP JUMPDEST JUMPDEST PUSH1 0x0 PUSH2 0x1D8 DUP5 DUP3 DUP6 ADD PUSH2 0x19F JUMP JUMPDEST SWAP2 POP POP SWAP3 SWAP2 POP POP JUMP JUMPDEST PUSH2 0x1EA DUP2 PUSH2 0x17E JUMP JUMPDEST DUP3 MSTORE POP POP JUMP JUMPDEST PUSH1 0x0 PUSH1 0x20 DUP3 ADD SWAP1 POP PUSH2 0x205 PUSH1 0x0 DUP4 ADD DUP5 PUSH2 0x1E1 JUMP JUMPDEST SWAP3 SWAP2 POP POP JUMP JUMPDEST PUSH1 0x0 DUP2 SWAP1 POP SWAP2 SWAP1 POP JUMP JUMPDEST PUSH2 0x21E DUP2 PUSH2 0x20B JUMP JUMPDEST DUP3 MSTORE POP POP JUMP JUMPDEST PUSH1 0x0 PUSH1 0x20 DUP3 ADD SWAP1 POP PUSH2 0x239 PUSH1 0x0 DUP4 ADD DUP5 PUSH2 0x215 JUMP JUMPDEST SWAP3 SWAP2 POP POP JUMP JUMPDEST PUSH32 0x4E487B7100000000000000000000000000000000000000000000000000000000 PUSH1 0x0 MSTORE PUSH1 0x12 PUSH1 0x4 MSTORE PUSH1 0x24 PUSH1 0x0 REVERT JUMPDEST PUSH1 0x0 PUSH2 0x279 DUP3 PUSH2 0x17E JUMP JUMPDEST SWAP2 POP PUSH2 0x284 DUP4 PUSH2 0x17E JUMP JUMPDEST SWAP3 POP DUP3 PUSH2 0x294 JUMPI PUSH2 0x293 PUSH2 0x23F JUMP JUMPDEST JUMPDEST DUP3 DUP3 MOD SWAP1 POP SWAP3 SWAP2 POP POP JUMP INVALID LOG2 PUSH5 0x6970667358 0x22 SLT KECCAK256 MLOAD 0xFB ADDRESS 0xB9 0xB1 0xF DUP12 SWAP4 EXTCODECOPY 0xE1 0x49 0xAF BLOCKHASH COINBASE ORIGIN ADDMOD PUSH27 0xA5561D8939EEBCCE5C0D6470C124F064736F6C6343000813003300 "},"methodIdentifiers":{"getNextRandomNumber(uint256)":"95fa9135","getRandomBytes()":"ba23ec8e","getRandomNumber()":"dbdff2c1","getRandomRange(uint256)":"c46e63f4"}}}}}