{
  "_format": "hh-sol-artifact-1",
  "contractName": "RNG",
  "sourceName": "contracts/RNG.sol",
  "abi": [
    {
      "inputs": [
        {
          "internalType": "uint256",
          "name": "nextIndex",
          "type": "uint256"
        }
      ],
      "name": "getNextRandomNumber",
      "outputs": [
        {
          "internalType": "uint256",
          "name": "",
          "type": "uint256"
        }
      ],
      "stateMutability": "view",
      "type": "function"
    },
    {
      "inputs": [],
      "name": "getRandomBytes",
      "outputs": [
        {
          "internalType": "bytes32",
          "name": "addr",
          "type": "bytes32"
        }
      ],
      "stateMutability": "view",
      "type": "function"
    },
    {
      "inputs": [],
      "name": "getRandomNumber",
      "outputs": [
        {
          "internalType": "uint256",
          "name": "",
          "type": "uint256"
        }
      ],
      "stateMutability": "view",
      "type": "function"
    },
    {
      "inputs": [
        {
          "internalType": "uint256",
          "name": "max",
          "type": "uint256"
        }
      ],
      "name": "getRandomRange",
      "outputs": [
        {
          "internalType": "uint256",
          "name": "",
          "type": "uint256"
        }
      ],
      "stateMutability": "view",
      "type": "function"
    }
  ],
  "bytecode": "0x608060405234801561001057600080fd5b506102d5806100206000396000f3fe608060405234801561001057600080fd5b506004361061004c5760003560e01c806395fa913514610051578063ba23ec8e14610081578063c46e63f41461009f578063dbdff2c1146100cf575b600080fd5b61006b600480360381019061006691906101b4565b6100ed565b60405161007891906101f0565b60405180910390f35b610089610129565b6040516100969190610224565b60405180910390f35b6100b960048036038101906100b491906101b4565b61014b565b6040516100c691906101f0565b60405180910390f35b6100d7610167565b6040516100e491906101f0565b60405180910390f35b6000816100f8610167565b1760405160200161010991906101f0565b6040516020818303038152906040528051906020012060001c9050919050565b60006040516000810160208160008060185afa61014257fe5b81519250505090565b600081610156610167565b610160919061026e565b9050919050565b6000610171610129565b60001c905090565b600080fd5b6000819050919050565b6101918161017e565b811461019c57600080fd5b50565b6000813590506101ae81610188565b92915050565b6000602082840312156101ca576101c9610179565b5b60006101d88482850161019f565b91505092915050565b6101ea8161017e565b82525050565b600060208201905061020560008301846101e1565b92915050565b6000819050919050565b61021e8161020b565b82525050565b60006020820190506102396000830184610215565b92915050565b7f4e487b7100000000000000000000000000000000000000000000000000000000600052601260045260246000fd5b60006102798261017e565b91506102848361017e565b9250826102945761029361023f565b5b82820690509291505056fea264697066735822122051fb30b9b10f8b933ce149af404132087aa5561d8939eebcce5c0d6470c124f064736f6c63430008130033",
  "linkReferences": {},
  "deployedLinkReferences": {}
}